:02000000A22F2D
:10000600633083120313FD00FD0B07280000000078
:020016000800E0
:0E0018000000000000000000000000000800D2
:100026002B3083120313FC00DA30FD00FD0B192878
:08003600FC0B19280000080072
:08003E00FA1FF2130030080064
:1000460083120313DB1B292886112A2886155B1BBE
:100056002E2806112F280615DB1A33288610342879
:1000660086145B1A382806103928061436183D28D7
:1000760006163E28061286160C208612DB1945281F
:100086008611462886155B194A2806114B2806153F
:10009600DB184F288610502886145B185428061043
:1000A600552806143618592806165A280612861692
:1000B6000C208612361C61281320622803200800B3
:1000C6007B15FB1F6D280130F300F201F101F001F1
:0800D600FA0DF20CFF300800E6
:0E00DE00F201F101F001F801F3010030080019
:1000EC00FB14FB1F8028FF30F300F200F100F0003E
:0800FC00FA0DF20CFF300800C0
:10010400133083120313FD00FD0B8628000000004A
:020114000800E1
:1001160083120313D601D801D9011030DA00043056
:1001260059020318B728F03088005A098316880048
:100136000C200C200F3083120805F0007008D70041
:1001460070080319B1285808D60057080319AF28B4
:10015600D70CD713D60AA8280430D900DA0D5A10BE
:0E0166000430D807D90A92285608F000080085
:1001740083120313FA017308031D7A147708031D0D
:10018400FA147A0803190629033A0319D1287A18AC
:10019400CE28F61F04290229F21F02290429720815
:1001A4008039FA00F21376088039F6137A060319B7
:1001B400DF287A080319022904297708730203192E
:1001C400E628031CFA28FE28760872020319ED2893
:1001D400031CFA28FE28750871020319F428031C6D
:1001E400FA28FE2874087002031906290318FE2849
:1001F400FA08031904290229FA080319022904290F
:100204000314080003100800031403150800080071
:06021400FB15FF3008009D
:10021A00A0017208031D22297108F2007008F1007A
:10022A00F001A0157208031D22297108F200F101DC
:10023A00A01120167208031930292008F302031DA1
:10024A00031C34290310F21B3829F00DF10DF20DAD
:10025A00F30B282934290130FC006F203B29023096
:0E026A00FC0063203B290430FC001F2008002C
:100278008312031336105608DB00232036140800B7
:10028800831203135608F2007208F100F20A5708A5
:10029800F000D70A700884000008F0007108840094
:1002A8007008800071088400000803195C29482937
:0602B8005608F0000800EA
:1002BE0083120313FB017308031D77080319B62974
:1002CE0072087606FA007708F3077E30031C73294E
:1002DE00F3020318B9297629F302031CBC2972080C
:1002EE00F8007108FC007008FD00F817F6170310EF
:1002FE00F201F101F0011830A0007D1C9029740864
:10030E00F00775080318750FF10776080318760FB6
:10031E00F207F20CF10CF00CF80CFC0CFD0C0310B7
:10032E00A00B8429F21BA029F80DF00DF10DF20D92
:10033E00F3037B1B701CB229F81FB229F00A0319B4
:10034E00F10A0319F20A031DB229F20CF10CF00C9A
:10035E00F30A0319B929FA1FF2130030BE2901302E
:10036E006F20BE2902307620BE29043063200000A3
:02037E00080075
:1003800083120313F8010830FC00700DF80D740897
:10039000F8020318CD29F8070310F00DFC0BC5294E
:0203A000080053
:1003A20083120313CA014A0849078400000803198B
:1003B200E2294A08490784000008D6003C21CA0AFB
:0403C200D429080032
:1003C600831203137408003A031DFE297508003AC8
:1003D600031DFE297608003A031DFE297708003A18
:1003E600031DFE29FF30F000FF30F1007F30F200E0
:1003F600FF30F300992A83120313770803198D2A15
:1004060073080319902A720876068039FA00F217E3
:10041600F617A0017208F8007108FC007008FD00CC
:100426007408FD027508031C750FFC027608031C90
:10043600760FF802F801FC01FD01031C292A0310BE
:10044600F20CF10CF00CF80C0130A0007708F30266
:10045600031C332A7E302007F3070318932A382A11
:100466007E302007F307031C962A1830FA07FD0D85
:10047600FC0DF80DF00DF10DF20DA00D7408F00253
:100486007508031C750FF1027608031C760FF2023D
:10049600760DA004201C512A7D145C2A7408F007EE
:1004A60075080318750FF10776080318760AF20720
:1004B6007D10FA031F307A05031D3A2A7B1B7D1C2B
:1004C600832A0310F00DF10DF20DA00D7408F00251
:1004D6007508031C750FF1027608031C760FF202ED
:1004E600760D20040139FD070318FC0A0319F80AE2
:1004F600031D832AF80CFC0CFD0CF30A0319932A3E
:10050600FA1FF8137808F2007C08F1007D08F00065
:100516000030982A01300A21982A02306F20982A42
:0E05260004307620982A083063200000080078
:1005340083120313D401D5014908D0004A08D1001D
:100544004B08D2004C08D3005308FF3A031DB42AC9
:100554005208FF3A031DB42A5108FF3A031DB42A76
:100564005008FF3A031DBE2A4D08D6002130D7009B
:1005740044210330F000932C0130CE00D21FCD2A49
:1005840080305206F0007008D200CE0A4D08840074
:100594002D308000CD0A0030F0005306031DDC2A04
:1005A40070085206031DDC2A70085106031DDC2A5C
:1005B4005008003A031DE52A4D08D6002530D7001F
:1005C4004421F001932C5308FF3A031DF32A5208E7
:1005D400003A031DF32A5108003A031DF32A500878
:1005E400003A031DFD2A4D08D6002730D7004421C8
:1005F4004E08F000932C0030F4000030F500003079
:10060400F6007F30F7005008F0005108F10052085E
:10061400F2005308F300BA20013003180030F00050
:1006240070080319302B5008F0005108F1005208EB
:10063400F2005308F3000030F4000030F5002030DD
:10064400F6008230F7005F217008D0007108D100F5
:100654007208D2007308D300D503FD2A0030F400D9
:100664000030F5002030F6008230F7005008F0002A
:100674005108F1005208F2005308F300BA20013087
:10068400031C0030F00070080319632B5008F000BD
:100694005108F1005208F2005308F300CD30F40081
:1006A400CC30F5004C30F6007B30F7005F21700849
:1006B400D0007108D1007208D2007308D300D50AA3
:1006C400302BFF305005F800FF305105F9007F3022
:1006D4005205FA0000305305FB007808F40079084D
:1006E400F5007A08F6007B08F700F40DF50DF60D19
:1006F400F70D741000305005F00000305105F10082
:1007040000305205F200FF305305F3007008D000AA
:100714007108D1007208D2007308D3007408500421
:10072400F00075085104F10076085204F2007708CD
:100734005304F3007008D0007108D1007208D2008D
:100744007308D3007F305302F0007008CF000130EB
:10075400D3007008F4005008F0005108F10052086A
:10076400F2005308F30074080319BF2BF00DF10DC8
:10077400F20DF30D7010FF3EB62B7008D000710817
:10078400D1007208D2007308D3005308303EF00041
:100794004D08840070088000CD0A80305506F000B2
:1007A4008030013A7002031CE02B8030063AF000DE
:1007B400803055067002031CE02BE72B4D088400A3
:1007C4002E308000CD0A0130D4000630CF004F080F
:1007D400003A0319452CD3015008F0005108F100E8
:1007E4005208F2005308F300F00DF10DF20DF30D71
:1007F4007010F00DF10DF20DF30D70105008F007AC
:1008040051080318510FF10752080318520FF20749
:1008140053080318530FF3077008D0007108D10070
:100824007208D2007308D3005008F0005108F10098
:100834005208F2005308F300F00DF10DF20DF30D20
:1008440070107008D0007108D1007208D2007308CB
:10085400D3005308303EF0004D0884007008800037
:10086400CD0A5408003A031D432CD5035508003A19
:10087400031D432C4D0884002E308000CD0A013026
:10088400D400CF03E92BFF304D0784000008303A31
:10089400031D4E2CCD03452CFF304D07840000086A
:1008A4002E3A031D562CCD035508003A03198F2CFC
:1008B4004D08840065308000CD0A80305506F00074
:1008C4008030003A700203186F2C4D0884002D30DC
:1008D4008000CD0A5508003CD5005508CF005508C6
:1008E400093C0318812C0A30F4004F08F000C021A1
:1008F4003030F0074D08840070088000CD0A0A30BB
:10090400F4004F08F000C0217808F0003030F00700
:100914004D08840070088000CD0A4D0884008001D1
:04092400F0010800D6
:1009280083120313FB01FA01F9018030F800F10C7E
:10093800F00C031CA82C7408F90775080318750F28
:10094800FA070318FB0A0310F01FB02C7408FA0703
:1009580075080318750FFB07FB0CFA0CF90CF80C5B
:10096800031C9B2C7B08F3007A08F2007908F1003D
:060978007808F000080001
:0E097E008312031334088A0033088200080035
:10098C008B207008C9000F300805F0000319D02C1B
:0A099C008220C92C4908F000080071
:1009A600E52C803083120313C900F82CC030C9002F
:1009B600F82C9430C900F82CD430C900F82C8030BB
:1009C600C900F82C831203134908013A0319D42CE1
:1009D6004908023A0319D92C4908033A0319DC2CB1
:1009E6004908043A0319DF2CE22C4A03F0004908AF
:1009F600F0077008C90036147008DB002320361093
:0A0A06004B08DB0023203614080023
:100A1000831203137008F8007108F000F101F2016D
:100A2000F301FB01FC019630F300FA01F01F1E2DCB
:100A3000F809F009F80A0319F00AFA177008F1002A
:0C0A40007808F000F801F2010D21080018
:100A4C003030831203133C02031C392D3C08393C13
:100A5C00031C392D30303E02031C392D3E08393C25
:100A6C00031C392D3E2D0130F0000030F100EF2D2C
:100A7C003D082B3A031D632D30303C02F200F3018C
:100A8C00031CF30330303E02F000F101031CF103B0
:100A9C007208F00773080318013EF1070825700867
:100AAC00C9007108CA007208CB007308CC0037303B
:100ABC00CD009A22F001F101EF2D3D082D3A031DD6
:100ACC008A2D30303C02F200F301031CF30330306A
:100ADC003E02F000F101031CF10370087202F000F9
:100AEC007108031C013E7302F10008257008C9004F
:100AFC007108CA007208CB007308CC003730CD00E7
:100B0C009A22F001F101EF2D3D082A3A031DAA2D7E
:100B1C0030303C02F400F501031CF50330303E028A
:100B2C00F000F101031CF103942408257008C9009E
:100B3C007108CA007208CB007308CC003730CD00A6
:100B4C009A22F001F101EF2D3D082F3A031DEB2DF8
:100B5C0030303C02F000F101031CF1030825700851
:100B6C00C5007108C6007208C7007308C8004508A4
:100B7C00C1004608C2004708C3004808C400303012
:100B8C003E02F000F101031CF10308257008F4008B
:100B9C007108F5007208F6007308F7004508F000BC
:100BAC004608F1004708F2004808F300E3217008FA
:100BBC00C9007108CA007208CB007308CC0037302A
:100BCC00CD009A22F001F101EF2D0130F000003040
:040BDC00F10008001C
:100BE000013083120313DB0023202B30C900D121F5
:100BF00035080D3A0319002EC6247008B500F82DEB
:080C00000130DB002320080095
:100C080083120313C501C601B101B2018030320657
:100C1800F00080307002031D132E043031020318D7
:100C28001D2E31083C3E84008001B10A0319B20A26
:100C38000A2EB101B20180303206F0008030700215
:100C4800031D282E0430310203182A2F31083C3E98
:100C580084000008003A031D3A2E31083C3EC700C4
:100C6800C62447088400700880002A2E31083C3EBC
:100C7800840000080F3A0319592E00303206031D6C
:100C8800472E03303106031D592E31083C3E84009F
:100C980000080D3A0319592E31083C3EC700C624F6
:100CA80047088400700880003A2E31083C3E8400D2
:100CB8000008013A031D652E31083C3E8400373098
:100CC800800031083C3E84000008023A031D712E62
:100CD80031083C3E84003830800031083C3E8400B6
:100CE8000008033A031D7D2E31083C3E840039304C
:100CF800800031083C3E84000008043A031D892E18
:100D080031083C3E84002F30800031083C3E84008E
:100D18000008053A031D952E31083C3E8400343006
:100D2800800031083C3E84000008063A031DA12ECD
:100D380031083C3E84003530800031083C3E840058
:100D48000008073A031DAD2E31083C3E84003630BA
:100D5800800031083C3E84000008083A031DB92E83
:100D680031083C3E84002A30800031083C3E840033
:100D78000008093A031DC52E31083C3E8400313075
:100D8800800031083C3E840000080A3A031DD12E39
:100D980031083C3E84003230800031083C3E8400FB
:100DA80000080B3A031DDD2E31083C3E8400333029
:100DB800800031083C3E840000080C3A031DE92EEF
:100DC80031083C3E84002D30800031083C3E8400D0
:100DD80000080D3A031DF82E0130DB0023200130F6
:100DE800C5000030C6002A2F31083C3E84000008A8
:100DF8000E3A031D042F31083C3E84003030800039
:100E080031083C3E840000080F3A031D102F3108BA
:100E18003C3E84003D30800031083C3E84000008A0
:100E2800103A031D1C2F31083C3E84002B308000F3
:100E38000130C900310ACA0031083C3E840000086C
:100E4800CB00D324B10A0319B20A1F2E4508F000BB
:060E58004608F10008004D
:0A0E5E00FF3083160313880008001C
:100E680083160313861206120610861006118611C1
:100E78008312861206128611061186100610132098
:100E8800132013208614061486160C2086121320AD
:100E980086160C208612132086160C208612132024
:100EA800061086160C208612132086160C20861231
:100EB8008610861586160C208612132086110614B5
:100EC80086160C208612061086160C208612132011
:100ED80086160C208612061486160C2086121320FD
:100EE800061086160C20861286150615861406141A
:0C0EF80086160C20861213203614080009
:100F0400BF248A110A128000840AB30A0319B40A9E
:080F1400F003031D822F080009
:100F1C00013083120313DB0023203730C900D121A9
:100F2C0035080D3A03199E2FC6247008B500962F6C
:080F3C000130DB002320080056
:100F4400D82734272F2701308312DB0023200C30CD
:100F5400DB002320B5010426700871040319B62FA1
:100F64000130DB002320AC2F2625700871040319FF
:0C0F7400BD2FF025AC2F8E27AC2FBF2F17
:100FB00021308400123083120313F000C530B300D7
:080FC0000730B400822708008D
:080F8A004E3461344E34003492
:040F920030340034C3
:080F960049344E3446340034A6
:0C0F9E006534723472346F3472340034E5
:040FAA0000340034DB
:02400E004A2F37
:00000001FF
